:100000000C942A000C943C000C943C000C943C0092
:100010000C943C000C943C000C943C000C943C0070
:100020000C943C000C943C000C94F6040C942E05AB
:100030000C943C000C943C000C943C000C943C0050
:100040000C943C000C943C000C943C000C943C0040
:100050000C943C0011241FBECFE5D8E0DEBFCDBF1D
:1000600010E0A0E6B0E001C01D92A238B107E1F7B0
:100070000E946F050C94AD060C940000DF93CF93A3
:100080000F92CDB7DEB781E0898389810F90CF9140
:10009000DF910895DF93CF9300D000D000D0CDB78B
:1000A000DEB78A836B834C8381E089838A818430C5
:1000B00008F0D0C08B81883008F0CCC08C818230B1
:1000C00008F0C8C08A81282F30E03E832D836D81DF
:1000D0007E816130710509F441C08D819E8182303D
:1000E000910534F42D813E812115310571F0B0C0A8
:1000F0006D817E816230710509F459C08D819E81C8
:100100008330910509F47CC0A3C0AAE3B0E0EAE320
:10011000F0E08081482F8B81282F30E081E090E053
:1001200002C0880F991F2A95E2F7809584238C934B
:10013000AAE3B0E0EAE3F0E08081482F8C81282F29
:1001400030E08B81882F90E0B90102C0660F771FE5
:100150008A95E2F7CB01842B8C937AC0A7E3B0E0B9
:10016000E7E3F0E08081482F8B81282F30E081E0A9
:1001700090E002C0880F991F2A95E2F780958423AA
:100180008C93A7E3B0E0E7E3F0E08081482F8C8117
:10019000282F30E08B81882F90E0B90102C0660FD4
:1001A000771F8A95E2F7CB01842B8C9351C0A4E38F
:1001B000B0E0E4E3F0E08081482F8B81282F30E02D
:1001C00081E090E002C0880F991F2A95E2F78095A0
:1001D00084238C93A4E3B0E0E4E3F0E08081482F33
:1001E0008C81282F30E08B81882F90E0B90102C0EC
:1001F000660F771F8A95E2F7CB01842B8C9328C07A
:10020000A1E3B0E0E1E3F0E08081482F8B81282F6B
:1002100030E081E090E002C0880F991F2A95E2F754
:10022000809584238C93A1E3B0E0E1E3F0E080814A
:10023000482F8C81282F30E08B81882F90E0B901E6
:1002400002C0660F771F8A95E2F7CB01842B8C934F
:10025000198202C082E08983898126960FB6F894BC
:10026000DEBF0FBECDBFCF91DF910895DF93CF9357
:1002700000D000D000D0CDB7DEB78A836B834C832B
:1002800081E089838A81843008F0D3C08B818830F3
:1002900008F0CFC08C81823020F08C81823008F051
:1002A000C8C08A81282F30E03E832D836D817E81F6
:1002B0006130710509F441C08D819E8182309105C4
:1002C00034F42D813E812115310571F0B0C06D816E
:1002D0007E816230710509F459C08D819E81833021
:1002E000910509F47CC0A3C0ABE3B0E0EBE3F0E020
:1002F0008081482F8B81282F30E081E090E002C080
:10030000880F991F2A95E2F7809584238C93ABE39D
:10031000B0E0EBE3F0E08081482F8C81282F30E0C3
:100320008B81882F90E0B90102C0660F771F8A95F4
:10033000E2F7CB01842B8C937AC0A8E3B0E0E8E32A
:10034000F0E08081482F8B81282F30E081E090E021
:1003500002C0880F991F2A95E2F7809584238C9319
:10036000A8E3B0E0E8E3F0E08081482F8C81282FFB
:1003700030E08B81882F90E0B90102C0660F771FB3
:100380008A95E2F7CB01842B8C9351C0A5E3B0E0B2
:10039000E5E3F0E08081482F8B81282F30E081E079
:1003A00090E002C0880F991F2A95E2F78095842378
:1003B0008C93A5E3B0E0E5E3F0E08081482F8C81E9
:1003C000282F30E08B81882F90E0B90102C0660FA2
:1003D000771F8A95E2F7CB01842B8C9328C0A2E388
:1003E000B0E0E2E3F0E08081482F8B81282F30E0FD
:1003F00081E090E002C0880F991F2A95E2F780956E
:1004000084238C93A2E3B0E0E2E3F0E08081482F04
:100410008C81282F30E08B81882F90E0B90102C0B9
:10042000660F771F8A95E2F7CB01842B8C93198294
:1004300002C082E08983898126960FB6F894DEBFD8
:100440000FBECDBFCF91DF910895DF93CF9300D042
:1004500000D00F92CDB7DEB78A836B8381E08983AA
:100460008A81843008F074C08B81883008F070C0B5
:100470008A81282F30E03D832C838C819D818130BF
:10048000910549F12C813D81223031052CF48C817C
:100490009D81009761F05AC02C813D812230310549
:1004A00071F18C819D8183309105E9F14FC0ABE3FF
:1004B000B0E0EBE3F0E08081482F8B81282F30E023
:1004C00081E090E0022E02C0880F991F0A94E2F7A3
:1004D00084278C933BC0A8E3B0E0E8E3F0E08081A0
:1004E000482F8B81282F30E081E090E0022E02C05F
:1004F000880F991F0A94E2F784278C9327C0A5E3FD
:10050000B0E0E5E3F0E08081482F8B81282F30E0D8
:1005100081E090E0022E02C0880F991F0A94E2F752
:1005200084278C9313C0A2E3B0E0E2E3F0E0808183
:10053000482F8B81282F30E081E090E0022E02C00E
:10054000880F991F0A94E2F784278C93198202C0BE
:1005500082E0898389810F900F900F900F900F9008
:10056000CF91DF910895DF93CF93CDB7DEB7279773
:100570000FB6F894DEBF0FBECDBF8A836B835D8359
:100580004C8381E089838C819D81009709F47DC033
:100590008A81843008F076C08B81883008F072C080
:1005A0008A81282F30E03F832E834E815F81413046
:1005B000510559F18E819F818230910534F42E814D
:1005C0003F812115310569F05BC04E815F8142306A
:1005D000510579F18E819F818330910509F43DC0E9
:1005E0004FC0E9E3F0E08081282F30E08B81882F35
:1005F00090E0A90102C0559547958A95E2F7CA0196
:100600008170EC81FD8180833BC0E6E3F0E0808176
:10061000282F30E08B81882F90E0A90102C05595EA
:1006200047958A95E2F7CA018170EC81FD8180834C
:1006300027C0E3E3F0E08081282F30E08B81882F12
:1006400090E0A90102C0559547958A95E2F7CA0145
:100650008170EC81FD81808313C0E0E3F0E0808154
:10066000282F30E08B81882F90E0A90102C055959A
:1006700047958A95E2F7CA018170EC81FD818083FC
:10068000198205C082E0898302C083E08983898161
:1006900027960FB6F894DEBF0FBECDBFCF91DF9186
:1006A0000895DF93CF93CDB7DEB7E3E5F0E08DE0BB
:1006B0008083ECE5F0E08CE9808381E0809360004A
:1006C00081E080936100A9E5B0E0E9E5F0E0808198
:1006D00082608C93CF91DF9108950F93DF93CF9336
:1006E000CDB7DEB728970FB6F894DEBF0FBECDBFEB
:1006F0009A8389837C836B835E834D832F830887F2
:1007000089819A81009709F452C08F81833008F063
:100710004EC08F81882F90E0880F991F880F991FF6
:10072000880F991FFC01ED59FF4F89819A819183B0
:1007300080838F81882F90E0880F991F0196880F02
:10074000991F880F991FFC01ED59FF4F8D819E81E4
:10075000918380838F81882F90E0880F991F880F65
:10076000991F0196880F991FFC01ED59FF4F8B814E
:100770009C81918380838F81882F90E0880F991FBF
:10078000880F991F880F991FFC01E759FF4F87E1D8
:1007900080838F81882F90E0880F991F880F991F81
:1007A000880F991FFC01E659FF4F888580832896A2
:1007B0000FB6F894DEBF0FBECDBFCF91DF910F9182
:1007C0000895EF92FF920F931F93DF93CF9300D082
:1007D00000D00F92CDB7DEB71A821B821C821D8219
:1007E000789420917B0030917C0040917D00509165
:1007F0007E008A819B81AC81BD8182179307A4070B
:10080000B50778F780917B0090917C00A0917D00E6
:10081000B0917E008A839B83AC83BD8382E0898311
:1008200081C08981992787FD9095880F991F880F2E
:10083000991F880F991FFC01ED59FF4F808191810D
:10084000009709F46CC08981992787FD9095880FDE
:10085000991F880F991F880F991FFC01E759FF4FB7
:100860008081873109F05BC0E0907B00F0907C00D4
:1008700000917D0010917E008981992787FD9095D8
:10088000880F991F0196880F991F880F991FFC01E7
:10089000ED59FF4F808191819C0140E050E0C801FB
:1008A000B7010E948B06DC01CB019C01AD0189815F
:1008B000992787FD9095880F991F880F991F880F9A
:1008C000991FFC01E659FF4F8081882F90E0A0E03E
:1008D000B0E0281739074A075B0709F5898199278E
:1008E00087FD9095880F991F880F991F880F991F72
:1008F000FC01ED59FF4F208131818981992787FDC6
:100900009095880F991F880F991F0196880F991F3E
:10091000FC01ED59FF4F80819181F9010995898191
:1009200081508983898188230CF07BCF5ACFDF9354
:10093000CF930F92CDB7DEB7898389818330E0F4FE
:100940008981882F90E0880F991F880F991F880F41
:10095000991FFC01ED59FF4F118210828981882F68
:1009600090E0880F991F880F991F880F991FFC012D
:10097000E759FF4F81E180830F90CF91DF91089578
:10098000DF93CF930F92CDB7DEB789838981833010
:1009900070F48981882F90E0880F991F880F991F24
:1009A000880F991FFC01E759FF4F88E380830F9060
:1009B000CF91DF910895DF93CF930F92CDB7DEB73C
:1009C00089838981833070F48981882F90E0880F32
:1009D000991F880F991F880F991FFC01E759FF4F36
:1009E00087E180830F90CF91DF9108951F920F923E
:1009F0000FB60F9211248F939F93AF93BF93DF9302
:100A0000CF93CDB7DEB780916100815080936100B4
:100A1000809161008823B9F480917B0090917C00E3
:100A2000A0917D00B0917E000196A11DB11D809323
:100A30007B0090937C00A0937D00B0937E0080911A
:100A4000600080936100CF91DF91BF91AF919F9142
:100A50008F910F900FBE0F901F9018951F920F92BD
:100A60000FB60F9211248F939F93AF93BF93EF9381
:100A7000FF93DF93CF93CDB7DEB7809161008150B4
:100A800080936100809161008823E1F4E2E5F0E069
:100A900080916200808380917B0090917C00A09186
:100AA0007D00B0917E000196A11DB11D80937B0059
:100AB00090937C00A0937D00B0937E0080916000B5
:100AC00080936100CF91DF91FF91EF91BF91AF9142
:100AD0009F918F910F900FBE0F901F9018950F93BD
:100AE000DF93CF9300D00F92CDB7DEB783E0FE0146
:100AF0003196DF01982F1D929A95E9F783E089835B
:100B000082E08A8382E067E041E00E944A0082E05E
:100B100062E041E00E944A0083E062E040E00E941F
:100B20004A0083E062E040E00E9436010E945103E7
:100B300080E696E09E012D5F3F4FB90143E050E013
:100B400022E000E00E946D038BEB95E09E012F5F99
:100B50003F4FB90142E050E021E000E00E946D0308
:100B60000E94E10380E090E00F900F900F90CF91F2
:100B7000DF910F910895DF93CF9300D000D00F92B3
:100B8000CDB7DEB79D838C838C819D819A838983C9
:100B9000E981FA81408189819A81FC0131969081B5
:100BA0009E012D5F3F4F842F692FA9010E94B30240
:100BB0008B818130B1F480918100882391F4809100
:100BC0008000882371F480917F00882351F481E0B4
:100BD0008093810089819A81FC01329681E0808333
:100BE00067C08B81813081F480918100813061F414
:100BF00080918000882341F480917F00882321F434
:100C000081E080937F0054C08B81882391F4809190
:100C10008100813071F480918000882351F48091AB
:100C20007F00813031F481E08093800010927F005A
:100C30003FC08B818130A1F480918100813081F4AB
:100C400080918000813061F480917F00882341F49D
:100C50001092810089819A81FC013296108228C00D
:100C60008B81813081F480918100882361F48091AF
:100C70008000813041F480917F00882321F481E05D
:100C800080937F0015C08B81882391F4809181002F
:100C9000882371F480918000813051F480917F002D
:100CA000813031F410927F00109281001092800008
:100CB0000F900F900F900F900F90CF91DF910895AC
:100CC000DF93CF9300D000D0CDB7DEB79C838B836A
:100CD0008B819C819A838983E981FA81908182E06A
:100CE00062E0492F0E9436010F900F900F900F90F5
:100CF000CF91DF910895DF93CF9300D0CDB7DEB7CA
:100D00009A83898383E063E00E9425020F900F900D
:100D1000CF91DF910895A1E21A2EAA1BBB1BFD0102
:100D20000DC0AA1FBB1FEE1FFF1FA217B307E407CA
:100D3000F50720F0A21BB30BE40BF50B661F771F22
:100D4000881F991F1A9469F7609570958095909502
:0E0D50009B01AC01BD01CF010895F894FFCFC7
:00000001FF
